:100000000C945D000C9485000C9485000C94850084
:100010000C9485000C9485000C9485000C9485004C
:100020000C9485000C9485000C9485000C9485003C
:100030000C9485000C9485000C9485000C9485002C
:100040000C9427030C9485000C94F5020C94CF02B9
:100050000C9485000C9485000C9485000C9485000C
:100060000C9485000C94850000000008000201003B
:100070000003040700000000000000000000000072
:10008000250028002B0000000000240027002A0083
:10009000040404040404040402020202020203032E
:1000A0000303030301020408102040800102040836
:1000B0001020010204081020710311241FBECFEF8D
:1000C000D8E0DEBFCDBF22E0A0E5B1E001C01D92C7
:1000D000AA34B207E1F711E0A0E0B1E0EEE3FDE001
:1000E00002C005900D92A035B107D9F710E0CDE51B
:1000F000D0E004C02197FE010E949706CC35D107BD
:10010000C9F70E9433040C949D060C94000090E003
:10011000FC01EC55FF4F249180579F4FFC018491C7
:10012000882399F090E0880F991FFC01EA57FF4F50
:10013000A591B491FC01E458FF4F859194918FB73C
:10014000F894EC91E22BEC938FBF0895AF92BF929D
:10015000CF92DF92EF92FF920F931F93CF93DF9393
:100160006C017B018B01040F151FEB015E01AE18C2
:10017000BF08C017D10759F06991D601ED91FC91E4
:100180000190F081E02DC6010995892B79F7C50111
:10019000DF91CF911F910F91FF90EF90DF90CF9063
:1001A000BF90AF900895FC01538D448D252F30E012
:1001B000842F90E0821B930B541710F0CF96089574
:1001C00001970895FC01918D828D981761F0A28DA1
:1001D000AE0FBF2FB11D5D968C91928D9F5F9F7367
:1001E000928F90E008958FEF9FEF0895FC01918D1D
:1001F000828D981731F0828DE80FF11D858D90E08A
:1002000008958FEF9FEF0895FC01918D228D892F26
:1002100090E0805C9F4F821B91098F73992708950E
:1002200083EA91E00E94040121E0892B09F420E097
:10023000822F089580E090E0892B29F00E94100120
:1002400081110C9400000895FC01A48DA80FB92F12
:10025000B11DA35ABF4F2C91848D90E001968F73EE
:100260009927848FA689B7892C93A089B1898C910D
:10027000837080648C93938D848D981306C002885C
:10028000F389E02D80818F7D80830895EF92FF9226
:100290000F931F93CF93DF93EC0181E0888F9B8DA9
:1002A0008C8D98131AC0E889F989808185FF15C063
:1002B0009FB7F894EE89FF896083E889F989808186
:1002C0008370806480839FBF81E090E0DF91CF9155
:1002D0001F910F91FF90EF900895F62E0B8D10E077
:1002E0000F5F1F4F0F731127E02E8C8D8E110CC0E6
:1002F0000FB607FCFACFE889F989808185FFF5CF31
:10030000CE010E942401F1CFEB8DEC0FFD2FF11DEA
:10031000E35AFF4FF0829FB7F8940B8FEA89FB896D
:1003200080818062CFCFCF93DF93EC01888D8823CB
:10033000B9F0AA89BB89E889F9898C9185FD03C048
:10034000808186FD0DC00FB607FCF7CF8C9185FF2D
:10035000F2CF808185FFEDCFCE010E942401E9CF4D
:10036000DF91CF91089590E0FC01E859FF4F24916F
:10037000FC01EC55FF4F3491FC01E057FF4FE49135
:10038000EE23C9F0222339F0233001F1A8F4213003
:1003900019F1223029F1F0E0EE0FFF1FE458FF4F72
:1003A000A591B4918FB7F894EC91611126C0309566
:1003B0003E233C938FBF08952730A9F02830C9F021
:1003C000243049F7809180008F7D03C080918000A8
:1003D0008F7780938000DFCF84B58F7784BDDBCFAC
:1003E00084B58F7DFBCF8091B0008F778093B00074
:1003F000D2CF8091B0008F7DF9CF3E2BDACF3FB7BF
:10040000F8948091550190915601A0915701B091B7
:10041000580126B5A89B05C02F3F19F00196A11DD4
:10042000B11D3FBFBA2FA92F982F8827BC01CD013E
:10043000620F711D811D911D42E0660F771F881F9D
:10044000991F4A95D1F708952FB7F89460915101FB
:100450007091520180915301909154012FBF0895E2
:10046000FC0101900020E9F73197AF01481B590BBF
:10047000BC0183EA91E00C94A6008F929F92AF9208
:10048000BF920F931F93CF93DF93CDB7DEB7A197A2
:100490000FB6F894DEBF0FBECDBF19A2423008F4EC
:1004A0004AE08E010F5D1F4F842E912CB12CA12CA0
:1004B000A50194010E947506E62FB901CA01EA3030
:1004C000F4F4E05DD801EE938D01232B242B252B32
:1004D00079F790E080E0109719F0CD010E9430028A
:1004E000A1960FB6F894DEBF0FBECDBFDF91CF91BE
:1004F0001F910F91BF90AF909F908F900895E95CEE
:10050000E1CFEF92FF920F931F93CF93DF9300D031
:1005100000D0CDB7DEB783EA91E00E94E20083EA23
:1005200091E00E94E2008E010F5F1F4F78018A3335
:1005300041F0F80181938F0183EA91E00E94E2008B
:10054000F6CFC7010E944F06182F83EA91E00E9460
:10055000E2008053990B8230910520F4682F812F9F
:100560000E94B30183EA91E00E94E2008A3011F018
:100570008D30C1F783EA91E00E94F6008A3021F4C1
:1005800083EA91E00E94E2000F900F900F900F908D
:10059000DF91CF911F910F91FF90EF9008951F92DF
:1005A0000F920FB60F9211242F933F934F935F93A7
:1005B0006F937F938F939F93AF93BF93EF93FF932B
:1005C00083EA91E00E942401FF91EF91BF91AF91E6
:1005D0009F918F917F916F915F914F913F912F915B
:1005E0000F900FBE0F901F9018951F920F920FB68D
:1005F0000F9211242F938F939F93EF93FF93E0918A
:10060000B301F091B4018081E091B901F091BA0198
:1006100082FD1BC090818091BC018F5F8F73209100
:10062000BD01821741F0E091BC01F0E0ED55FE4FB5
:10063000958F8093BC01FF91EF919F918F912F91A6
:100640000F900FBE0F901F9018958081F4CF1F92CE
:100650000F920FB60F9211242F933F938F939F9376
:10066000AF93BF938091510190915201A09153019A
:10067000B09154013091500123E0230F2D3758F5EC
:100680000196A11DB11D20935001809351019093BB
:100690005201A0935301B093540180915501909160
:1006A0005601A0915701B09158010196A11DB11DAD
:1006B0008093550190935601A0935701B093580130
:1006C000BF91AF919F918F913F912F910F900FBE4E
:1006D0000F901F90189526E8230F0296A11DB11DBB
:1006E000D2CF1092A6011092A50188EE93E0A0E06F
:1006F000B0E08093A7019093A801A093A901B093C3
:10070000AA0184E091E09093A4018093A30185EC79
:1007100090E09093B0018093AF0184EC90E09093CF
:10072000B2018093B10180EC90E09093B40180938A
:10073000B30181EC90E09093B6018093B50182EC17
:1007400090E09093B8018093B70186EC90E090938D
:10075000BA018093B9011092BC011092BD011092B0
:10076000BE011092BF0110926301109264011092B9
:100770006501109266011092670110926801109253
:10078000690110926A0110926B0110926C01109233
:100790006D0110926E0110926F0110927001109213
:1007A00071011092720181E090E090934102809378
:1007B000400283E090E090934502809344021092BF
:1007C00047021092460281E00E9487008091440215
:1007D0000E94870060E0809144020E94B3018091F2
:1007E000460290914702892BE9F1E091B301F09123
:1007F000B40182E08083E091AF01F091B0011082FA
:10080000E091B101F091B2018FEC80831092BB01B5
:10081000E091B701F091B80186E08083E091B501E5
:10082000F091B601808180618083E091B501F09103
:10083000B601808188608083E091B501F091B601B6
:10084000808180688083E091B501F091B60180815C
:100850008F7D808382E191E00E94300280E291E00E
:100860000C9430020895789484B5826084BD84B578
:10087000816084BD85B5826085BD85B5816085BD9B
:1008800080916E00816080936E0010928100809153
:1008900081008260809381008091810081608093DB
:1008A0008100809180008160809380008091B10000
:1008B00084608093B1008091B00081608093B0002B
:1008C00080917A00846080937A0080917A008260BF
:1008D00080937A0080917A00816080937A00809181
:1008E0007A00806880937A001092C10010929F0174
:1008F0001092A0011092A1011092A20110925F012A
:100900001092600110926101109262010E94240213
:100910006B017C014B015C0128EB820E2BE0921EE7
:10092000A11CB11C0E9424026C157D058E059F053B
:1009300028F086169706A806B906A0F70E94FF01C0
:100940004B015C0198EEC92E93E0D92EE12CF12CDD
:100950000E94FF01681979098A099B09683E734062
:1009600081059105A8F331E0C31AD108E108F10827
:1009700048EE840E43E0941EA11CB11CC114D104A6
:10098000E104F10429F7E091B301F091B40182E0B0
:100990008083E091AF01F091B0011082E091B1014C
:1009A000F091B20180E180831092BB01E091B70128
:1009B000F091B80186E08083E091B501F091B60135
:1009C000808180618083E091B501F091B6018081E2
:1009D00088608083E091B501F091B60180818068E4
:1009E0008083E091B501F091B60180818F7D808395
:1009F0000E94240260935F01709360018093610103
:100A00009093620183E291E00E9430020E942402EE
:100A10006B017C014B015C018AE0880E911CA11CDA
:100A2000B11C0E9424026C157D058E059F0528F0DF
:100A300086169706A806B906A0F781E08093730191
:100A40000E94240260935F017093600180936101B2
:100A50009093620184E391E00E94300260E0809113
:100A600044020E94B301C0E0D0E084EF882E9924B4
:100A70009394A12CB12C0E942402672B682B692B24
:100A800009F4F1C00E942402C0905901D0905A018B
:100A9000E0905B01F0905C016C157D058E059F0573
:100AA00008F4F4C0C0905901D0905A01E0905B0165
:100AB000F0905C019B01AC012C193D094E095F09C6
:100AC00069017A0138EEC31633E0D306E104F1047C
:100AD00008F4D1C06093590170935A0180935B016F
:100AE00090935C0180926B0190926C01A0926D01D9
:100AF000B0926E0110926F0110927001109271010C
:100B0000109272018091630190916401A09165013E
:100B1000B09166018093670190936801A093690189
:100B2000B0936A010E942402609363017093640190
:100B3000809365019093660183EA91E00E94F6003C
:100B4000843611F40E9481020E94240260935F01A6
:100B50007093600180936101909362010E9424026E
:100B60006B017C018BE391E00E9430024AE061E07E
:100B700070E080E090E00E943D0282E491E00E94FB
:100B800030024AE0C701B6010E943D0284E491E0D0
:100B90000E9430028091630190916401A0916501EF
:100BA000B0916601A7019601281B390B4A0B5B0B1C
:100BB000CA01B9014AE00E943D0284E491E00E942A
:100BC00030026091630170916401809165019091A0
:100BD0006601C0906701D0906801E0906901F090D3
:100BE0006A016C197D098E099F094AE00E943D0245
:100BF00086E491E00E9430020E9424024AE00E94B2
:100C00003D0288E491E00E94300280E291E00E947F
:100C100030020E9424022B013C017C016B0135E073
:100C2000C30ED11CE11CF11C0E9424026415750541
:100C30008605970528F0C616D706E806F906A0F738
:100C400083EA91E00E94F600843611F40E9481024A
:100C50000E94240260936301709364018093650194
:100C60009093660108C00E942402623071058105DC
:100C7000910508F007CF209709F4FDCE0E941001DE
:100C8000882309F4F8CE0E940000F5CE6093590144
:100C900070935A0180935B0190935C0103CFFC0138
:100CA00088279927E89421912032E9F3293010F020
:100CB0002E30C8F32B3241F02D3239F4689404C041
:100CC0000E946D06820F911D219120532A30C0F39E
:100CD0001EF4909581959F4F08957AE0979F902DEF
:100CE000879F802D910D11240895A1E21A2EAA1B31
:100CF000BB1BFD010DC0AA1FBB1FEE1FFF1FA217CC
:100D0000B307E407F50720F0A21BB30BE40BF50BC8
:100D1000661F771F881F991F1A9469F76095709551
:100D2000809590959B01AC01BD01CF010895EE0F18
:0E0D3000FF1F0590F491E02D0994F894FFCF79
:100D3E00000000004601A600D30093010401E2006A
:100D4E00F6004445425547204D4F4445204F4E0036
:100D5E000D0A00564D4450565F317C315F564D445E
:100D6E0050560A00564D4450525F00564D44504561
:100D7E005F003A323A007C005F564D445045000009
:00000001FF
